{
  "abi": [
    {
      "type": "constructor",
      "inputs": [],
      "stateMutability": "nonpayable"
    },
    {
      "type": "function",
      "name": "creteUser",
      "inputs": [
        {
          "name": "_name",
          "type": "string",
          "internalType": "string"
        },
        {
          "name": "_email",
          "type": "string",
          "internalType": "string"
        },
        {
          "name": "_addressWallet",
          "type": "address",
          "internalType": "address"
        }
      ],
      "outputs": [],
      "stateMutability": "nonpayable"
    },
    {
      "type": "function",
      "name": "deleteUser",
      "inputs": [
        {
          "name": "_id",
          "type": "uint256",
          "internalType": "uint256"
        }
      ],
      "outputs": [],
      "stateMutability": "nonpayable"
    },
    {
      "type": "function",
      "name": "getUser",
      "inputs": [
        {
          "name": "_id",
          "type": "uint256",
          "internalType": "uint256"
        }
      ],
      "outputs": [
        {
          "name": "",
          "type": "tuple",
          "internalType": "struct UserCrud.User",
          "components": [
            {
              "name": "id",
              "type": "uint256",
              "internalType": "uint256"
            },
            {
              "name": "name",
              "type": "string",
              "internalType": "string"
            },
            {
              "name": "email",
              "type": "string",
              "internalType": "string"
            },
            {
              "name": "addressWallet",
              "type": "address",
              "internalType": "address"
            }
          ]
        }
      ],
      "stateMutability": "view"
    },
    {
      "type": "function",
      "name": "updateUser",
      "inputs": [
        {
          "name": "_id",
          "type": "uint256",
          "internalType": "uint256"
        },
        {
          "name": "_newName",
          "type": "string",
          "internalType": "string"
        }
      ],
      "outputs": [],
      "stateMutability": "nonpayable"
    },
    {
      "type": "event",
      "name": "UserCreate",
      "inputs": [
        {
          "name": "id",
          "type": "uint256",
          "indexed": false,
          "internalType": "uint256"
        },
        {
          "name": "name",
          "type": "string",
          "indexed": false,
          "internalType": "string"
        }
      ],
      "anonymous": false
    },
    {
      "type": "event",
      "name": "UserDeleted",
      "inputs": [
        {
          "name": "id",
          "type": "uint256",
          "indexed": false,
          "internalType": "uint256"
        }
      ],
      "anonymous": false
    },
    {
      "type": "event",
      "name": "UserUpdated",
      "inputs": [
        {
          "name": "id",
          "type": "uint256",
          "indexed": false,
          "internalType": "uint256"
        },
        {
          "name": "newName",
          "type": "string",
          "indexed": false,
          "internalType": "string"
        }
      ],
      "anonymous": false
    }
  ],
  "bytecode": {
    "object": "0x6080604052348015600e575f5ffd5b50600180546001600160a01b031916331790556109f48061002e5f395ff3fe608060405234801561000f575f5ffd5b506004361061004a575f3560e01c806338f148451461004e578063543d512414610063578063b0467deb14610076578063d85340e71461009f575b5f5ffd5b61006161005c366004610604565b6100b2565b005b6100616100713660046106ba565b6101c2565b610089610084366004610604565b610313565b604051610096919061076b565b60405180910390f35b6100616100ad3660046107cf565b6104d7565b6001546001600160a01b0316331461010a5760405162461bcd60e51b8152602060048201526016602482015275796f7520617265206e6f74206175746f72697a65642160501b60448201526064015b60405180910390fd5b5f81815260036020526040902054819060ff166101395760405162461bcd60e51b815260040161010190610813565b5f8281526002602052604081208181559061015760018301826105b2565b610164600283015f6105b2565b50600390810180546001600160a01b03191690555f8381526020918252604090819020805460ff19169055518381527f42a77abd0397855f875460bb511f41935bfa5f396b556d95717d8c2e08334aae910160405180910390a15050565b5f805481526003602052604090205460ff16156102175760405162461bcd60e51b81526020600482015260136024820152725573657220616c72656164792065786973742160681b6044820152606401610101565b604080516080810182525f805480835260208084018881528486018890526001600160a01b03871660608601529183526002905292902081518155915190918291600182019061026790826108bf565b506040820151600282019061027c90826108bf565b5060609190910151600391820180546001600160a01b0319166001600160a01b039092169190911790555f805481526020919091526040808220805460ff19166001179055905490517fffa30f4b444507accfe90062280376fb44908534b554b0933b320f8713513488916102f291879061097a565b60405180910390a15f805490806103088361099a565b919050555050505050565b61034560405180608001604052805f815260200160608152602001606081526020015f6001600160a01b031681525090565b5f82815260036020526040902054829060ff166103745760405162461bcd60e51b815260040161010190610813565b60025f8481526020019081526020015f206040518060800160405290815f82015481526020016001820180546103a990610841565b80601f01602080910402602001604051908101604052809291908181526020018280546103d590610841565b80156104205780601f106103f757610100808354040283529160200191610420565b820191905f5260205f20905b81548152906001019060200180831161040357829003601f168201915b5050505050815260200160028201805461043990610841565b80601f016020809104026020016040519081016040528092919081815260200182805461046590610841565b80156104b05780601f10610487576101008083540402835291602001916104b0565b820191905f5260205f20905b81548152906001019060200180831161049357829003601f168201915b5050509183525050600391909101546001600160a01b031660209091015291505b50919050565b6001546001600160a01b0316331461052a5760405162461bcd60e51b8152602060048201526016602482015275796f7520617265206e6f74206175746f72697a65642160501b6044820152606401610101565b5f82815260036020526040902054829060ff166105595760405162461bcd60e51b815260040161010190610813565b5f83815260026020526040902060010161057383826108bf565b507f5898c2fc7726f88f217cd77fc8d44127690540692e1c694c0c958efcecbe5d7483836040516105a592919061097a565b60405180910390a1505050565b5080546105be90610841565b5f825580601f106105cd575050565b601f0160209004905f5260205f20908101906105e991906105ec565b50565b5b80821115610600575f81556001016105ed565b5090565b5f60208284031215610614575f5ffd5b5035919050565b634e487b7160e01b5f52604160045260245ffd5b5f82601f83011261063e575f5ffd5b813567ffffffffffffffff8111156106585761065861061b565b604051601f8201601f19908116603f0116810167ffffffffffffffff811182821017156106875761068761061b565b60405281815283820160200185101561069e575f5ffd5b816020850160208301375f918101602001919091529392505050565b5f5f5f606084860312156106cc575f5ffd5b833567ffffffffffffffff8111156106e2575f5ffd5b6106ee8682870161062f565b935050602084013567ffffffffffffffff81111561070a575f5ffd5b6107168682870161062f565b92505060408401356001600160a01b0381168114610732575f5ffd5b809150509250925092565b5f81518084528060208401602086015e5f602082860101526020601f19601f83011685010191505092915050565b60208152815160208201525f60208301516080604084015261079060a084018261073d565b90506040840151601f198483030160608501526107ad828261073d565b606095909501516001600160a01b031660809490940193909352509192915050565b5f5f604083850312156107e0575f5ffd5b82359150602083013567ffffffffffffffff8111156107fd575f5ffd5b6108098582860161062f565b9150509250929050565b6020808252601490820152735573657220646f6573206e6f742065786973742160601b604082015260600190565b600181811c9082168061085557607f821691505b6020821081036104d157634e487b7160e01b5f52602260045260245ffd5b601f8211156108ba57805f5260205f20601f840160051c810160208510156108985750805b601f840160051c820191505b818110156108b7575f81556001016108a4565b50505b505050565b815167ffffffffffffffff8111156108d9576108d961061b565b6108ed816108e78454610841565b84610873565b6020601f82116001811461091f575f83156109085750848201515b5f19600385901b1c1916600184901b1784556108b7565b5f84815260208120601f198516915b8281101561094e578785015182556020948501946001909201910161092e565b508482101561096b57868401515f19600387901b60f8161c191681555b50505050600190811b01905550565b828152604060208201525f610992604083018461073d565b949350505050565b5f600182016109b757634e487b7160e01b5f52601160045260245ffd5b506001019056fea2646970667358221220196ace4758b1136dda2273a3a122ac9200f810fda1c3c588eb6dc2660fe283c764736f6c634300081c0033",
    "linkReferences": {}
  },
  "methodIdentifiers": {
    "creteUser(string,string,address)": "543d5124",
    "deleteUser(uint256)": "38f14845",
    "getUser(uint256)": "b0467deb",
    "updateUser(uint256,string)": "d85340e7"
  },
  "id": 21
}